{
  "_format": "hh-sol-artifact-1",
  "contractName": "NeonovaPortal",
  "sourceName": "contracts/NeonovaPortal.sol",
  "abi": [
    {
      "inputs": [
        {
          "internalType": "address",
          "name": "_mcbTokenAddress",
          "type": "address"
        }
      ],
      "stateMutability": "nonpayable",
      "type": "constructor"
    },
    {
      "inputs": [
        {
          "internalType": "address",
          "name": "sender",
          "type": "address"
        },
        {
          "internalType": "uint256",
          "name": "tokenId",
          "type": "uint256"
        },
        {
          "internalType": "address",
          "name": "owner",
          "type": "address"
        }
      ],
      "name": "ERC721IncorrectOwner",
      "type": "error"
    },
    {
      "inputs": [
        {
          "internalType": "address",
          "name": "operator",
          "type": "address"
        },
        {
          "internalType": "uint256",
          "name": "tokenId",
          "type": "uint256"
        }
      ],
      "name": "ERC721InsufficientApproval",
      "type": "error"
    },
    {
      "inputs": [
        {
          "internalType": "address",
          "name": "approver",
          "type": "address"
        }
      ],
      "name": "ERC721InvalidApprover",
      "type": "error"
    },
    {
      "inputs": [
        {
          "internalType": "address",
          "name": "operator",
          "type": "address"
        }
      ],
      "name": "ERC721InvalidOperator",
      "type": "error"
    },
    {
      "inputs": [
        {
          "internalType": "address",
          "name": "owner",
          "type": "address"
        }
      ],
      "name": "ERC721InvalidOwner",
      "type": "error"
    },
    {
      "inputs": [
        {
          "internalType": "address",
          "name": "receiver",
          "type": "address"
        }
      ],
      "name": "ERC721InvalidReceiver",
      "type": "error"
    },
    {
      "inputs": [
        {
          "internalType": "address",
          "name": "sender",
          "type": "address"
        }
      ],
      "name": "ERC721InvalidSender",
      "type": "error"
    },
    {
      "inputs": [
        {
          "internalType": "uint256",
          "name": "tokenId",
          "type": "uint256"
        }
      ],
      "name": "ERC721NonexistentToken",
      "type": "error"
    },
    {
      "inputs": [
        {
          "internalType": "address",
          "name": "owner",
          "type": "address"
        }
      ],
      "name": "OwnableInvalidOwner",
      "type": "error"
    },
    {
      "inputs": [
        {
          "internalType": "address",
          "name": "account",
          "type": "address"
        }
      ],
      "name": "OwnableUnauthorizedAccount",
      "type": "error"
    },
    {
      "anonymous": false,
      "inputs": [
        {
          "indexed": true,
          "internalType": "address",
          "name": "owner",
          "type": "address"
        },
        {
          "indexed": true,
          "internalType": "address",
          "name": "approved",
          "type": "address"
        },
        {
          "indexed": true,
          "internalType": "uint256",
          "name": "tokenId",
          "type": "uint256"
        }
      ],
      "name": "Approval",
      "type": "event"
    },
    {
      "anonymous": false,
      "inputs": [
        {
          "indexed": true,
          "internalType": "address",
          "name": "owner",
          "type": "address"
        },
        {
          "indexed": true,
          "internalType": "address",
          "name": "operator",
          "type": "address"
        },
        {
          "indexed": false,
          "internalType": "bool",
          "name": "approved",
          "type": "bool"
        }
      ],
      "name": "ApprovalForAll",
      "type": "event"
    },
    {
      "anonymous": false,
      "inputs": [
        {
          "indexed": false,
          "internalType": "uint256",
          "name": "_fromTokenId",
          "type": "uint256"
        },
        {
          "indexed": false,
          "internalType": "uint256",
          "name": "_toTokenId",
          "type": "uint256"
        }
      ],
      "name": "BatchMetadataUpdate",
      "type": "event"
    },
    {
      "anonymous": false,
      "inputs": [
        {
          "indexed": false,
          "internalType": "uint256",
          "name": "_tokenId",
          "type": "uint256"
        }
      ],
      "name": "MetadataUpdate",
      "type": "event"
    },
    {
      "anonymous": false,
      "inputs": [
        {
          "indexed": true,
          "internalType": "address",
          "name": "previousOwner",
          "type": "address"
        },
        {
          "indexed": true,
          "internalType": "address",
          "name": "newOwner",
          "type": "address"
        }
      ],
      "name": "OwnershipTransferred",
      "type": "event"
    },
    {
      "anonymous": false,
      "inputs": [
        {
          "indexed": true,
          "internalType": "address",
          "name": "user",
          "type": "address"
        },
        {
          "indexed": false,
          "internalType": "uint256",
          "name": "tokenId",
          "type": "uint256"
        },
        {
          "indexed": false,
          "internalType": "string",
          "name": "grade",
          "type": "string"
        },
        {
          "indexed": false,
          "internalType": "uint256",
          "name": "currentLuck",
          "type": "uint256"
        }
      ],
      "name": "SummonResult",
      "type": "event"
    },
    {
      "anonymous": false,
      "inputs": [
        {
          "indexed": true,
          "internalType": "address",
          "name": "from",
          "type": "address"
        },
        {
          "indexed": true,
          "internalType": "address",
          "name": "to",
          "type": "address"
        },
        {
          "indexed": true,
          "internalType": "uint256",
          "name": "tokenId",
          "type": "uint256"
        }
      ],
      "name": "Transfer",
      "type": "event"
    },
    {
      "inputs": [],
      "name": "MAX_LUCK",
      "outputs": [
        {
          "internalType": "uint256",
          "name": "",
          "type": "uint256"
        }
      ],
      "stateMutability": "view",
      "type": "function"
    },
    {
      "inputs": [],
      "name": "SUMMON_PRICE",
      "outputs": [
        {
          "internalType": "uint256",
          "name": "",
          "type": "uint256"
        }
      ],
      "stateMutability": "view",
      "type": "function"
    },
    {
      "inputs": [
        {
          "internalType": "address",
          "name": "to",
          "type": "address"
        },
        {
          "internalType": "uint256",
          "name": "tokenId",
          "type": "uint256"
        }
      ],
      "name": "approve",
      "outputs": [],
      "stateMutability": "nonpayable",
      "type": "function"
    },
    {
      "inputs": [
        {
          "internalType": "address",
          "name": "owner",
          "type": "address"
        }
      ],
      "name": "balanceOf",
      "outputs": [
        {
          "internalType": "uint256",
          "name": "",
          "type": "uint256"
        }
      ],
      "stateMutability": "view",
      "type": "function"
    },
    {
      "inputs": [
        {
          "internalType": "uint256",
          "name": "tokenId",
          "type": "uint256"
        }
      ],
      "name": "getApproved",
      "outputs": [
        {
          "internalType": "address",
          "name": "",
          "type": "address"
        }
      ],
      "stateMutability": "view",
      "type": "function"
    },
    {
      "inputs": [
        {
          "internalType": "address",
          "name": "owner",
          "type": "address"
        },
        {
          "internalType": "address",
          "name": "operator",
          "type": "address"
        }
      ],
      "name": "isApprovedForAll",
      "outputs": [
        {
          "internalType": "bool",
          "name": "",
          "type": "bool"
        }
      ],
      "stateMutability": "view",
      "type": "function"
    },
    {
      "inputs": [],
      "name": "mcbToken",
      "outputs": [
        {
          "internalType": "contract IERC20",
          "name": "",
          "type": "address"
        }
      ],
      "stateMutability": "view",
      "type": "function"
    },
    {
      "inputs": [],
      "name": "name",
      "outputs": [
        {
          "internalType": "string",
          "name": "",
          "type": "string"
        }
      ],
      "stateMutability": "view",
      "type": "function"
    },
    {
      "inputs": [],
      "name": "owner",
      "outputs": [
        {
          "internalType": "address",
          "name": "",
          "type": "address"
        }
      ],
      "stateMutability": "view",
      "type": "function"
    },
    {
      "inputs": [
        {
          "internalType": "uint256",
          "name": "tokenId",
          "type": "uint256"
        }
      ],
      "name": "ownerOf",
      "outputs": [
        {
          "internalType": "address",
          "name": "",
          "type": "address"
        }
      ],
      "stateMutability": "view",
      "type": "function"
    },
    {
      "inputs": [],
      "name": "renounceOwnership",
      "outputs": [],
      "stateMutability": "nonpayable",
      "type": "function"
    },
    {
      "inputs": [
        {
          "internalType": "address",
          "name": "from",
          "type": "address"
        },
        {
          "internalType": "address",
          "name": "to",
          "type": "address"
        },
        {
          "internalType": "uint256",
          "name": "tokenId",
          "type": "uint256"
        }
      ],
      "name": "safeTransferFrom",
      "outputs": [],
      "stateMutability": "nonpayable",
      "type": "function"
    },
    {
      "inputs": [
        {
          "internalType": "address",
          "name": "from",
          "type": "address"
        },
        {
          "internalType": "address",
          "name": "to",
          "type": "address"
        },
        {
          "internalType": "uint256",
          "name": "tokenId",
          "type": "uint256"
        },
        {
          "internalType": "bytes",
          "name": "data",
          "type": "bytes"
        }
      ],
      "name": "safeTransferFrom",
      "outputs": [],
      "stateMutability": "nonpayable",
      "type": "function"
    },
    {
      "inputs": [
        {
          "internalType": "address",
          "name": "operator",
          "type": "address"
        },
        {
          "internalType": "bool",
          "name": "approved",
          "type": "bool"
        }
      ],
      "name": "setApprovalForAll",
      "outputs": [],
      "stateMutability": "nonpayable",
      "type": "function"
    },
    {
      "inputs": [
        {
          "internalType": "uint256",
          "name": "amount",
          "type": "uint256"
        }
      ],
      "name": "summon",
      "outputs": [],
      "stateMutability": "nonpayable",
      "type": "function"
    },
    {
      "inputs": [
        {
          "internalType": "bytes4",
          "name": "interfaceId",
          "type": "bytes4"
        }
      ],
      "name": "supportsInterface",
      "outputs": [
        {
          "internalType": "bool",
          "name": "",
          "type": "bool"
        }
      ],
      "stateMutability": "view",
      "type": "function"
    },
    {
      "inputs": [],
      "name": "symbol",
      "outputs": [
        {
          "internalType": "string",
          "name": "",
          "type": "string"
        }
      ],
      "stateMutability": "view",
      "type": "function"
    },
    {
      "inputs": [],
      "name": "tokenCounter",
      "outputs": [
        {
          "internalType": "uint256",
          "name": "",
          "type": "uint256"
        }
      ],
      "stateMutability": "view",
      "type": "function"
    },
    {
      "inputs": [
        {
          "internalType": "uint256",
          "name": "tokenId",
          "type": "uint256"
        }
      ],
      "name": "tokenURI",
      "outputs": [
        {
          "internalType": "string",
          "name": "",
          "type": "string"
        }
      ],
      "stateMutability": "view",
      "type": "function"
    },
    {
      "inputs": [
        {
          "internalType": "address",
          "name": "from",
          "type": "address"
        },
        {
          "internalType": "address",
          "name": "to",
          "type": "address"
        },
        {
          "internalType": "uint256",
          "name": "tokenId",
          "type": "uint256"
        }
      ],
      "name": "transferFrom",
      "outputs": [],
      "stateMutability": "nonpayable",
      "type": "function"
    },
    {
      "inputs": [
        {
          "internalType": "address",
          "name": "newOwner",
          "type": "address"
        }
      ],
      "name": "transferOwnership",
      "outputs": [],
      "stateMutability": "nonpayable",
      "type": "function"
    },
    {
      "inputs": [
        {
          "internalType": "address",
          "name": "",
          "type": "address"
        }
      ],
      "name": "userLuck",
      "outputs": [
        {
          "internalType": "uint256",
          "name": "",
          "type": "uint256"
        }
      ],
      "stateMutability": "view",
      "type": "function"
    },
    {
      "inputs": [],
      "name": "withdrawTokens",
      "outputs": [],
      "stateMutability": "nonpayable",
      "type": "function"
    }
  ],
  "bytecode": "0x608060405234801562000010575f80fd5b5060405162001c0638038062001c0683398101604081905262000033916200014d565b336040518060400160405280600d81526020016c13995bdb9bdd9848141a5b1bdd609a1b8152506040518060400160405280600381526020016204e56560ec1b815250815f90816200008691906200021a565b5060016200009582826200021a565b5050506001600160a01b038116620000c657604051631e4fbdf760e01b81525f600482015260240160405180910390fd5b620000d181620000fc565b50600880546001600160a01b0319166001600160a01b03929092169190911790555f600955620002e6565b600780546001600160a01b038381166001600160a01b0319831681179093556040519116919082907f8be0079c531659141344cd1fd0a4f28419497f9722a3daafe3b4186f6b6457e0905f90a35050565b5f602082840312156200015e575f80fd5b81516001600160a01b038116811462000175575f80fd5b9392505050565b634e487b7160e01b5f52604160045260245ffd5b600181811c90821680620001a557607f821691505b602082108103620001c457634e487b7160e01b5f52602260045260245ffd5b50919050565b601f8211156200021557805f5260205f20601f840160051c81016020851015620001f15750805b601f840160051c820191505b8181101562000212575f8155600101620001fd565b50505b505050565b81516001600160401b038111156200023657620002366200017c565b6200024e8162000247845462000190565b84620001ca565b602080601f83116001811462000284575f84156200026c5750858301515b5f19600386901b1c1916600185901b178555620002de565b5f85815260208120601f198616915b82811015620002b45788860151825594840194600190910190840162000293565b5085821015620002d257878501515f19600388901b60f8161c191681555b505060018460011b0185555b505050505050565b61191280620002f45f395ff3fe608060405234801561000f575f80fd5b5060043610610148575f3560e01c806368f6ff9d116100bf578063a22cb46511610079578063a22cb465146102a9578063b88d4fde146102bc578063c87b56dd146102cf578063d082e381146102e2578063e985e9c5146102eb578063f2fde38b146102fe575f80fd5b806368f6ff9d1461024e57806370a082311461026d578063715018a6146102805780638d8f2adb146102885780638da5cb5b1461029057806395d89b41146102a1575f80fd5b806323b872dd1161011057806323b872dd146101dc578063308e4817146101ef57806342842e0e14610205578063580879a11461021857806360ecce55146102285780636352211e1461023b575f80fd5b806301ffc9a71461014c578063035d9f2a1461017457806306fdde0314610189578063081812fc1461019e578063095ea7b3146101c9575b5f80fd5b61015f61015a3660046113ce565b610311565b60405190151581526020015b60405180910390f35b6101876101823660046113e9565b61033b565b005b610191610476565b60405161016b919061144d565b6101b16101ac3660046113e9565b610505565b6040516001600160a01b03909116815260200161016b565b6101876101d736600461147a565b61052c565b6101876101ea3660046114a2565b61053b565b6101f7606481565b60405190815260200161016b565b6101876102133660046114a2565b6105c4565b6101f76802b5e3af16b188000081565b6008546101b1906001600160a01b031681565b6101b16102493660046113e9565b6105de565b6101f761025c3660046114db565b600a6020525f908152604090205481565b6101f761027b3660046114db565b6105e8565b61018761062d565b610187610640565b6007546001600160a01b03166101b1565b610191610725565b6101876102b7366004611501565b610734565b6101876102ca36600461154a565b61073f565b6101916102dd3660046113e9565b610757565b6101f760095481565b61015f6102f936600461161f565b6107d8565b61018761030c3660046114db565b610805565b5f6001600160e01b03198216632483248360e11b1480610335575061033582610842565b92915050565b5f81116103845760405162461bcd60e51b81526020600482015260126024820152710416d6f756e74206d757374206265203e20360741b60448201526064015b60405180910390fd5b5f610398826802b5e3af16b1880000611664565b6008546040516323b872dd60e01b8152336004820152306024820152604481018390529192506001600160a01b0316906323b872dd906064016020604051808303815f875af11580156103ed573d5f803e3d5ffd5b505050506040513d601f19601f82011682018060405250810190610411919061167b565b6104565760405162461bcd60e51b8152602060048201526016602482015275151c985b9cd9995c881bd9881350d08819985a5b195960521b604482015260640161037b565b5f5b828110156104715761046933610891565b600101610458565b505050565b60605f805461048490611696565b80601f01602080910402602001604051908101604052809291908181526020018280546104b090611696565b80156104fb5780601f106104d2576101008083540402835291602001916104fb565b820191905f5260205f20905b8154815290600101906020018083116104de57829003601f168201915b5050505050905090565b5f61050f82610af5565b505f828152600460205260409020546001600160a01b0316610335565b610537828233610b2d565b5050565b6001600160a01b03821661056457604051633250574960e11b81525f600482015260240161037b565b5f610570838333610b3a565b9050836001600160a01b0316816001600160a01b0316146105be576040516364283d7b60e01b81526001600160a01b038086166004830152602482018490528216604482015260640161037b565b50505050565b61047183838360405180602001604052805f81525061073f565b5f61033582610af5565b5f6001600160a01b038216610612576040516322718ad960e21b81525f600482015260240161037b565b506001600160a01b03165f9081526003602052604090205490565b610635610c2c565b61063e5f610c59565b565b610648610c2c565b6008546040516370a0823160e01b81523060048201525f916001600160a01b0316906370a0823190602401602060405180830381865afa15801561068e573d5f803e3d5ffd5b505050506040513d601f19601f820116820180604052508101906106b291906116ce565b60085460405163a9059cbb60e01b8152336004820152602481018390529192506001600160a01b03169063a9059cbb906044016020604051808303815f875af1158015610701573d5f803e3d5ffd5b505050506040513d601f19601f82011682018060405250810190610537919061167b565b60606001805461048490611696565b610537338383610caa565b61074a84848461053b565b6105be3385858585610d71565b606061076282610af5565b505f61077860408051602081019091525f815290565b90505f61078484610e99565b905081515f03610795579392505050565b8051156107c75781816040516020016107af9291906116e5565b60405160208183030381529060405292505050919050565b6107d084610f38565b949350505050565b6001600160a01b039182165f90815260056020908152604080832093909416825291909152205460ff1690565b61080d610c2c565b6001600160a01b03811661083657604051631e4fbdf760e01b81525f600482015260240161037b565b61083f81610c59565b50565b5f6001600160e01b031982166380ac58cd60e01b148061087257506001600160e01b03198216635b5e139f60e01b145b8061033557506301ffc9a760e01b6001600160e01b0319831614610335565b6009546001600160a01b0382165f908152600a6020526040902054606090819060641161091b57505060408051808201825260018152602960f91b60208083019190915282518084018452601681527534b833399d1797a8b697171717b930b932973539b7b760511b818301526001600160a01b0386165f908152600a9092529281205590610a74565b604080514260208201526bffffffffffffffffffffffff19606087901b1691810191909152605481018490525f90606490607401604051602081830303815290604052805190602001205f1c6109719190611713565b905060058110156109e05760408051808201825260018152602960f91b60208083019190915282518084018452601681527534b833399d1797a8b697171717b930b932973539b7b760511b818301526001600160a01b0389165f908152600a9092529281205593509150610a72565b6040518060400160405280600681526020016521b7b6b6b7b760d11b81525092506040518060400160405280601881526020017f697066733a2f2f516d2e2e2e2f636f6d6d6f6e2e6a736f6e000000000000000081525091506001600a5f876001600160a01b03166001600160a01b031681526020019081526020015f205f828254610a6c9190611732565b90915550505b505b610a7e8484610fa9565b610a888382610fc2565b60098054905f610a9783611745565b90915550506001600160a01b0384165f818152600a6020526040908190205490517f598ef19c89bdd26dc9c87ddc747219bf37786c3e7b1146ca36ec71a8fda56b8291610ae7918791879161175d565b60405180910390a250505050565b5f818152600260205260408120546001600160a01b03168061033557604051637e27328960e01b81526004810184905260240161037b565b6104718383836001611011565b5f828152600260205260408120546001600160a01b0390811690831615610b6657610b66818486611115565b6001600160a01b03811615610ba057610b815f855f80611011565b6001600160a01b0381165f90815260036020526040902080545f190190555b6001600160a01b03851615610bce576001600160a01b0385165f908152600360205260409020805460010190555b5f8481526002602052604080822080546001600160a01b0319166001600160a01b0389811691821790925591518793918516917fddf252ad1be2c89b69c2b068fc378daa952ba7f163c4a11628f55a4df523b3ef91a4949350505050565b6007546001600160a01b0316331461063e5760405163118cdaa760e01b815233600482015260240161037b565b600780546001600160a01b038381166001600160a01b0319831681179093556040519116919082907f8be0079c531659141344cd1fd0a4f28419497f9722a3daafe3b4186f6b6457e0905f90a35050565b6001600160a01b038316610cd35760405163a9fbf51f60e01b81525f600482015260240161037b565b6001600160a01b038216610d0557604051630b61174360e31b81526001600160a01b038316600482015260240161037b565b6001600160a01b038381165f81815260056020908152604080832094871680845294825291829020805460ff191686151590811790915591519182527f17307eab39ab6107e8899845ad3d59bd9653f200f220920489ca2b5937696c31910160405180910390a3505050565b6001600160a01b0383163b15610e9257604051630a85bd0160e11b81526001600160a01b0384169063150b7a0290610db3908890889087908790600401611785565b6020604051808303815f875af1925050508015610ded575060408051601f3d908101601f19168201909252610dea918101906117c1565b60015b610e54573d808015610e1a576040519150601f19603f3d011682016040523d82523d5f602084013e610e1f565b606091505b5080515f03610e4c57604051633250574960e11b81526001600160a01b038516600482015260240161037b565b805160208201fd5b6001600160e01b03198116630a85bd0160e11b14610e9057604051633250574960e11b81526001600160a01b038516600482015260240161037b565b505b5050505050565b5f818152600660205260409020805460609190610eb590611696565b80601f0160208091040260200160405190810160405280929190818152602001828054610ee190611696565b8015610f2c5780601f10610f0357610100808354040283529160200191610f2c565b820191905f5260205f20905b815481529060010190602001808311610f0f57829003601f168201915b50505050509050919050565b6060610f4382610af5565b505f610f5960408051602081019091525f815290565b90505f815111610f775760405180602001604052805f815250610fa2565b80610f8184611179565b604051602001610f929291906116e5565b6040516020818303038152906040525b9392505050565b610537828260405180602001604052805f815250611209565b5f828152600660205260409020610fd98282611820565b506040518281527ff8e1a15aba9398e019f0b49df1a4fde98ee17ae345cb5f6b5e2c27f5033e8ce79060200160405180910390a15050565b808061102557506001600160a01b03821615155b156110e6575f61103484610af5565b90506001600160a01b038316158015906110605750826001600160a01b0316816001600160a01b031614155b8015611073575061107181846107d8565b155b1561109c5760405163a9fbf51f60e01b81526001600160a01b038416600482015260240161037b565b81156110e45783856001600160a01b0316826001600160a01b03167f8c5be1e5ebec7d5bd14f71427d1e84f3dd0314c0f7b2291e5b200ac8c7c3b92560405160405180910390a45b505b50505f90815260046020526040902080546001600160a01b0319166001600160a01b0392909216919091179055565b611120838383611220565b610471576001600160a01b03831661114e57604051637e27328960e01b81526004810182905260240161037b565b60405163177e802f60e01b81526001600160a01b03831660048201526024810182905260440161037b565b60605f61118583611281565b60010190505f8167ffffffffffffffff8111156111a4576111a4611536565b6040519080825280601f01601f1916602001820160405280156111ce576020820181803683370190505b5090508181016020015b5f19016f181899199a1a9b1b9c1cb0b131b232b360811b600a86061a8153600a85049450846111d857509392505050565b6112138383611358565b610471335f858585610d71565b5f6001600160a01b038316158015906107d05750826001600160a01b0316846001600160a01b03161480611259575061125984846107d8565b806107d05750505f908152600460205260409020546001600160a01b03908116911614919050565b5f8072184f03e93ff9f4daa797ed6e38ed64bf6a1f0160401b83106112bf5772184f03e93ff9f4daa797ed6e38ed64bf6a1f0160401b830492506040015b6d04ee2d6d415b85acef810000000083106112eb576d04ee2d6d415b85acef8100000000830492506020015b662386f26fc10000831061130957662386f26fc10000830492506010015b6305f5e1008310611321576305f5e100830492506008015b612710831061133557612710830492506004015b60648310611347576064830492506002015b600a83106103355760010192915050565b6001600160a01b03821661138157604051633250574960e11b81525f600482015260240161037b565b5f61138d83835f610b3a565b90506001600160a01b03811615610471576040516339e3563760e11b81525f600482015260240161037b565b6001600160e01b03198116811461083f575f80fd5b5f602082840312156113de575f80fd5b8135610fa2816113b9565b5f602082840312156113f9575f80fd5b5035919050565b5f5b8381101561141a578181015183820152602001611402565b50505f910152565b5f8151808452611439816020860160208601611400565b601f01601f19169290920160200192915050565b602081525f610fa26020830184611422565b80356001600160a01b0381168114611475575f80fd5b919050565b5f806040838503121561148b575f80fd5b6114948361145f565b946020939093013593505050565b5f805f606084860312156114b4575f80fd5b6114bd8461145f565b92506114cb6020850161145f565b9150604084013590509250925092565b5f602082840312156114eb575f80fd5b610fa28261145f565b801515811461083f575f80fd5b5f8060408385031215611512575f80fd5b61151b8361145f565b9150602083013561152b816114f4565b809150509250929050565b634e487b7160e01b5f52604160045260245ffd5b5f805f806080858703121561155d575f80fd5b6115668561145f565b93506115746020860161145f565b925060408501359150606085013567ffffffffffffffff80821115611597575f80fd5b818701915087601f8301126115aa575f80fd5b8135818111156115bc576115bc611536565b604051601f8201601f19908116603f011681019083821181831017156115e4576115e4611536565b816040528281528a60208487010111156115fc575f80fd5b826020860160208301375f60208483010152809550505050505092959194509250565b5f8060408385031215611630575f80fd5b6116398361145f565b91506116476020840161145f565b90509250929050565b634e487b7160e01b5f52601160045260245ffd5b808202811582820484141761033557610335611650565b5f6020828403121561168b575f80fd5b8151610fa2816114f4565b600181811c908216806116aa57607f821691505b6020821081036116c857634e487b7160e01b5f52602260045260245ffd5b50919050565b5f602082840312156116de575f80fd5b5051919050565b5f83516116f6818460208801611400565b83519083019061170a818360208801611400565b01949350505050565b5f8261172d57634e487b7160e01b5f52601260045260245ffd5b500690565b8082018082111561033557610335611650565b5f6001820161175657611756611650565b5060010190565b838152606060208201525f6117756060830185611422565b9050826040830152949350505050565b6001600160a01b03858116825284166020820152604081018390526080606082018190525f906117b790830184611422565b9695505050505050565b5f602082840312156117d1575f80fd5b8151610fa2816113b9565b601f82111561047157805f5260205f20601f840160051c810160208510156118015750805b601f840160051c820191505b81811015610e92575f815560010161180d565b815167ffffffffffffffff81111561183a5761183a611536565b61184e816118488454611696565b846117dc565b602080601f831160018114611881575f841561186a5750858301515b5f19600386901b1c1916600185901b178555610e90565b5f85815260208120601f198616915b828110156118af57888601518255948401946001909101908401611890565b50858210156118cc57878501515f19600388901b60f8161c191681555b5050505050600190811b0190555056fea2646970667358221220eb52fbe2d86b2df2c449ee0f0fd64432d36ef2ea08fb8754a4d05b431b46a80064736f6c63430008180033",
  "linkReferences": {},
  "deployedLinkReferences": {}
}