{
  "_format": "hh-sol-artifact-1",
  "contractName": "MeeBotNFT",
  "sourceName": "contracts/MeeBotNFT.sol",
  "abi": [
    {
      "inputs": [
        {
          "internalType": "address",
          "name": "initialOwner",
          "type": "address"
        }
      ],
      "stateMutability": "nonpayable",
      "type": "constructor"
    },
    {
      "inputs": [],
      "name": "ERC721EnumerableForbiddenBatchMint",
      "type": "error"
    },
    {
      "inputs": [
        {
          "internalType": "address",
          "name": "sender",
          "type": "address"
        },
        {
          "internalType": "uint256",
          "name": "tokenId",
          "type": "uint256"
        },
        {
          "internalType": "address",
          "name": "owner",
          "type": "address"
        }
      ],
      "name": "ERC721IncorrectOwner",
      "type": "error"
    },
    {
      "inputs": [
        {
          "internalType": "address",
          "name": "operator",
          "type": "address"
        },
        {
          "internalType": "uint256",
          "name": "tokenId",
          "type": "uint256"
        }
      ],
      "name": "ERC721InsufficientApproval",
      "type": "error"
    },
    {
      "inputs": [
        {
          "internalType": "address",
          "name": "approver",
          "type": "address"
        }
      ],
      "name": "ERC721InvalidApprover",
      "type": "error"
    },
    {
      "inputs": [
        {
          "internalType": "address",
          "name": "operator",
          "type": "address"
        }
      ],
      "name": "ERC721InvalidOperator",
      "type": "error"
    },
    {
      "inputs": [
        {
          "internalType": "address",
          "name": "owner",
          "type": "address"
        }
      ],
      "name": "ERC721InvalidOwner",
      "type": "error"
    },
    {
      "inputs": [
        {
          "internalType": "address",
          "name": "receiver",
          "type": "address"
        }
      ],
      "name": "ERC721InvalidReceiver",
      "type": "error"
    },
    {
      "inputs": [
        {
          "internalType": "address",
          "name": "sender",
          "type": "address"
        }
      ],
      "name": "ERC721InvalidSender",
      "type": "error"
    },
    {
      "inputs": [
        {
          "internalType": "uint256",
          "name": "tokenId",
          "type": "uint256"
        }
      ],
      "name": "ERC721NonexistentToken",
      "type": "error"
    },
    {
      "inputs": [
        {
          "internalType": "address",
          "name": "owner",
          "type": "address"
        },
        {
          "internalType": "uint256",
          "name": "index",
          "type": "uint256"
        }
      ],
      "name": "ERC721OutOfBoundsIndex",
      "type": "error"
    },
    {
      "inputs": [
        {
          "internalType": "address",
          "name": "owner",
          "type": "address"
        }
      ],
      "name": "OwnableInvalidOwner",
      "type": "error"
    },
    {
      "inputs": [
        {
          "internalType": "address",
          "name": "account",
          "type": "address"
        }
      ],
      "name": "OwnableUnauthorizedAccount",
      "type": "error"
    },
    {
      "anonymous": false,
      "inputs": [
        {
          "indexed": true,
          "internalType": "address",
          "name": "owner",
          "type": "address"
        },
        {
          "indexed": true,
          "internalType": "address",
          "name": "approved",
          "type": "address"
        },
        {
          "indexed": true,
          "internalType": "uint256",
          "name": "tokenId",
          "type": "uint256"
        }
      ],
      "name": "Approval",
      "type": "event"
    },
    {
      "anonymous": false,
      "inputs": [
        {
          "indexed": true,
          "internalType": "address",
          "name": "owner",
          "type": "address"
        },
        {
          "indexed": true,
          "internalType": "address",
          "name": "operator",
          "type": "address"
        },
        {
          "indexed": false,
          "internalType": "bool",
          "name": "approved",
          "type": "bool"
        }
      ],
      "name": "ApprovalForAll",
      "type": "event"
    },
    {
      "anonymous": false,
      "inputs": [
        {
          "indexed": true,
          "internalType": "address",
          "name": "previousOwner",
          "type": "address"
        },
        {
          "indexed": true,
          "internalType": "address",
          "name": "newOwner",
          "type": "address"
        }
      ],
      "name": "OwnershipTransferred",
      "type": "event"
    },
    {
      "anonymous": false,
      "inputs": [
        {
          "indexed": true,
          "internalType": "address",
          "name": "from",
          "type": "address"
        },
        {
          "indexed": true,
          "internalType": "address",
          "name": "to",
          "type": "address"
        },
        {
          "indexed": true,
          "internalType": "uint256",
          "name": "tokenId",
          "type": "uint256"
        }
      ],
      "name": "Transfer",
      "type": "event"
    },
    {
      "inputs": [
        {
          "internalType": "address",
          "name": "to",
          "type": "address"
        },
        {
          "internalType": "uint256",
          "name": "tokenId",
          "type": "uint256"
        }
      ],
      "name": "approve",
      "outputs": [],
      "stateMutability": "nonpayable",
      "type": "function"
    },
    {
      "inputs": [
        {
          "internalType": "address",
          "name": "owner",
          "type": "address"
        }
      ],
      "name": "balanceOf",
      "outputs": [
        {
          "internalType": "uint256",
          "name": "",
          "type": "uint256"
        }
      ],
      "stateMutability": "view",
      "type": "function"
    },
    {
      "inputs": [
        {
          "internalType": "uint256",
          "name": "tokenId",
          "type": "uint256"
        }
      ],
      "name": "getApproved",
      "outputs": [
        {
          "internalType": "address",
          "name": "",
          "type": "address"
        }
      ],
      "stateMutability": "view",
      "type": "function"
    },
    {
      "inputs": [
        {
          "internalType": "address",
          "name": "owner",
          "type": "address"
        },
        {
          "internalType": "address",
          "name": "operator",
          "type": "address"
        }
      ],
      "name": "isApprovedForAll",
      "outputs": [
        {
          "internalType": "bool",
          "name": "",
          "type": "bool"
        }
      ],
      "stateMutability": "view",
      "type": "function"
    },
    {
      "inputs": [
        {
          "internalType": "string",
          "name": "uri",
          "type": "string"
        }
      ],
      "name": "mintMeeBot",
      "outputs": [],
      "stateMutability": "nonpayable",
      "type": "function"
    },
    {
      "inputs": [],
      "name": "name",
      "outputs": [
        {
          "internalType": "string",
          "name": "",
          "type": "string"
        }
      ],
      "stateMutability": "view",
      "type": "function"
    },
    {
      "inputs": [],
      "name": "owner",
      "outputs": [
        {
          "internalType": "address",
          "name": "",
          "type": "address"
        }
      ],
      "stateMutability": "view",
      "type": "function"
    },
    {
      "inputs": [
        {
          "internalType": "uint256",
          "name": "tokenId",
          "type": "uint256"
        }
      ],
      "name": "ownerOf",
      "outputs": [
        {
          "internalType": "address",
          "name": "",
          "type": "address"
        }
      ],
      "stateMutability": "view",
      "type": "function"
    },
    {
      "inputs": [],
      "name": "renounceOwnership",
      "outputs": [],
      "stateMutability": "nonpayable",
      "type": "function"
    },
    {
      "inputs": [
        {
          "internalType": "address",
          "name": "to",
          "type": "address"
        }
      ],
      "name": "safeMint",
      "outputs": [],
      "stateMutability": "nonpayable",
      "type": "function"
    },
    {
      "inputs": [
        {
          "internalType": "address",
          "name": "from",
          "type": "address"
        },
        {
          "internalType": "address",
          "name": "to",
          "type": "address"
        },
        {
          "internalType": "uint256",
          "name": "tokenId",
          "type": "uint256"
        }
      ],
      "name": "safeTransferFrom",
      "outputs": [],
      "stateMutability": "nonpayable",
      "type": "function"
    },
    {
      "inputs": [
        {
          "internalType": "address",
          "name": "from",
          "type": "address"
        },
        {
          "internalType": "address",
          "name": "to",
          "type": "address"
        },
        {
          "internalType": "uint256",
          "name": "tokenId",
          "type": "uint256"
        },
        {
          "internalType": "bytes",
          "name": "data",
          "type": "bytes"
        }
      ],
      "name": "safeTransferFrom",
      "outputs": [],
      "stateMutability": "nonpayable",
      "type": "function"
    },
    {
      "inputs": [
        {
          "internalType": "address",
          "name": "operator",
          "type": "address"
        },
        {
          "internalType": "bool",
          "name": "approved",
          "type": "bool"
        }
      ],
      "name": "setApprovalForAll",
      "outputs": [],
      "stateMutability": "nonpayable",
      "type": "function"
    },
    {
      "inputs": [
        {
          "internalType": "bytes4",
          "name": "interfaceId",
          "type": "bytes4"
        }
      ],
      "name": "supportsInterface",
      "outputs": [
        {
          "internalType": "bool",
          "name": "",
          "type": "bool"
        }
      ],
      "stateMutability": "view",
      "type": "function"
    },
    {
      "inputs": [],
      "name": "symbol",
      "outputs": [
        {
          "internalType": "string",
          "name": "",
          "type": "string"
        }
      ],
      "stateMutability": "view",
      "type": "function"
    },
    {
      "inputs": [
        {
          "internalType": "uint256",
          "name": "index",
          "type": "uint256"
        }
      ],
      "name": "tokenByIndex",
      "outputs": [
        {
          "internalType": "uint256",
          "name": "",
          "type": "uint256"
        }
      ],
      "stateMutability": "view",
      "type": "function"
    },
    {
      "inputs": [],
      "name": "tokenCounter",
      "outputs": [
        {
          "internalType": "uint256",
          "name": "",
          "type": "uint256"
        }
      ],
      "stateMutability": "view",
      "type": "function"
    },
    {
      "inputs": [
        {
          "internalType": "address",
          "name": "owner",
          "type": "address"
        },
        {
          "internalType": "uint256",
          "name": "index",
          "type": "uint256"
        }
      ],
      "name": "tokenOfOwnerByIndex",
      "outputs": [
        {
          "internalType": "uint256",
          "name": "",
          "type": "uint256"
        }
      ],
      "stateMutability": "view",
      "type": "function"
    },
    {
      "inputs": [
        {
          "internalType": "uint256",
          "name": "tokenId",
          "type": "uint256"
        }
      ],
      "name": "tokenURI",
      "outputs": [
        {
          "internalType": "string",
          "name": "",
          "type": "string"
        }
      ],
      "stateMutability": "view",
      "type": "function"
    },
    {
      "inputs": [],
      "name": "totalSupply",
      "outputs": [
        {
          "internalType": "uint256",
          "name": "",
          "type": "uint256"
        }
      ],
      "stateMutability": "view",
      "type": "function"
    },
    {
      "inputs": [
        {
          "internalType": "address",
          "name": "from",
          "type": "address"
        },
        {
          "internalType": "address",
          "name": "to",
          "type": "address"
        },
        {
          "internalType": "uint256",
          "name": "tokenId",
          "type": "uint256"
        }
      ],
      "name": "transferFrom",
      "outputs": [],
      "stateMutability": "nonpayable",
      "type": "function"
    },
    {
      "inputs": [
        {
          "internalType": "address",
          "name": "newOwner",
          "type": "address"
        }
      ],
      "name": "transferOwnership",
      "outputs": [],
      "stateMutability": "nonpayable",
      "type": "function"
    }
  ],
  "bytecode": "0x608060405234801562000010575f80fd5b50604051620017b2380380620017b283398101604081905262000033916200012d565b806040518060400160405280600c81526020016b135959509bdd149a5d1d585b60a21b8152506040518060400160405280600381526020016226a12960e91b815250815f9081620000859190620001fa565b506001620000948282620001fa565b5050506001600160a01b038116620000c557604051631e4fbdf760e01b81525f600482015260240160405180910390fd5b620000d081620000dc565b50505f600b55620002c6565b600a80546001600160a01b038381166001600160a01b0319831681179093556040519116919082907f8be0079c531659141344cd1fd0a4f28419497f9722a3daafe3b4186f6b6457e0905f90a35050565b5f602082840312156200013e575f80fd5b81516001600160a01b038116811462000155575f80fd5b9392505050565b634e487b7160e01b5f52604160045260245ffd5b600181811c908216806200018557607f821691505b602082108103620001a457634e487b7160e01b5f52602260045260245ffd5b50919050565b601f821115620001f557805f5260205f20601f840160051c81016020851015620001d15750805b601f840160051c820191505b81811015620001f2575f8155600101620001dd565b50505b505050565b81516001600160401b038111156200021657620002166200015c565b6200022e8162000227845462000170565b84620001aa565b602080601f83116001811462000264575f84156200024c5750858301515b5f19600386901b1c1916600185901b178555620002be565b5f85815260208120601f198616915b82811015620002945788860151825594840194600190910190840162000273565b5085821015620002b257878501515f19600388901b60f8161c191681555b505060018460011b0185555b505050505050565b6114de80620002d45f395ff3fe608060405234801561000f575f80fd5b506004361061013d575f3560e01c80636ae7e054116100b4578063a22cb46511610079578063a22cb46514610289578063b88d4fde1461029c578063c87b56dd146102af578063d082e381146102c2578063e985e9c5146102cb578063f2fde38b146102de575f80fd5b80636ae7e0541461024257806370a0823114610255578063715018a6146102685780638da5cb5b1461027057806395d89b4114610281575f80fd5b806323b872dd1161010557806323b872dd146101d05780632f745c59146101e357806340d097c3146101f657806342842e0e146102095780634f6ccce71461021c5780636352211e1461022f575f80fd5b806301ffc9a71461014157806306fdde0314610169578063081812fc1461017e578063095ea7b3146101a957806318160ddd146101be575b5f80fd5b61015461014f366004610fe2565b6102f1565b60405190151581526020015b60405180910390f35b61017161031b565b6040516101609190611047565b61019161018c366004611059565b6103aa565b6040516001600160a01b039091168152602001610160565b6101bc6101b736600461108b565b6103d1565b005b6008545b604051908152602001610160565b6101bc6101de3660046110b3565b6103e0565b6101c26101f136600461108b565b61046e565b6101bc6102043660046110ec565b6104d1565b6101bc6102173660046110b3565b6104f6565b6101c261022a366004611059565b610515565b61019161023d366004611059565b61056a565b6101bc61025036600461118c565b610574565b6101c26102633660046110ec565b6105a8565b6101bc6105ed565b600a546001600160a01b0316610191565b610171610600565b6101bc6102973660046111d1565b61060f565b6101bc6102aa36600461120a565b61061a565b6101716102bd366004611059565b610632565b6101c2600b5481565b6101546102d9366004611281565b6106d1565b6101bc6102ec3660046110ec565b6106fe565b5f6001600160e01b0319821663780e9d6360e01b148061031557506103158261073b565b92915050565b60605f8054610329906112b2565b80601f0160208091040260200160405190810160405280929190818152602001828054610355906112b2565b80156103a05780601f10610377576101008083540402835291602001916103a0565b820191905f5260205f20905b81548152906001019060200180831161038357829003601f168201915b5050505050905090565b5f6103b48261078a565b505f828152600460205260409020546001600160a01b0316610315565b6103dc8282336107c2565b5050565b6001600160a01b03821661040e57604051633250574960e11b81525f60048201526024015b60405180910390fd5b5f61041a8383336107cf565b9050836001600160a01b0316816001600160a01b031614610468576040516364283d7b60e01b81526001600160a01b0380861660048301526024820184905282166044820152606401610405565b50505050565b5f610478836105a8565b82106104a95760405163295f44f760e21b81526001600160a01b038416600482015260248101839052604401610405565b506001600160a01b03919091165f908152600660209081526040808320938352929052205490565b600b546104de82826108a2565b600b8054905f6104ed836112fe565b91905055505050565b61051083838360405180602001604052805f81525061061a565b505050565b5f61051f60085490565b82106105475760405163295f44f760e21b81525f600482015260248101839052604401610405565b6008828154811061055a5761055a611316565b905f5260205f2001549050919050565b5f6103158261078a565b600b5461058133826108a2565b5f818152600c60205260409020610598838261136e565b50600b8054905f6104ed836112fe565b5f6001600160a01b0382166105d2576040516322718ad960e21b81525f6004820152602401610405565b506001600160a01b03165f9081526003602052604090205490565b6105f56108bb565b6105fe5f6108e8565b565b606060018054610329906112b2565b6103dc338383610939565b6106258484846103e0565b6104683385858585610a00565b5f818152600c6020526040902080546060919061064e906112b2565b80601f016020809104026020016040519081016040528092919081815260200182805461067a906112b2565b80156106c55780601f1061069c576101008083540402835291602001916106c5565b820191905f5260205f20905b8154815290600101906020018083116106a857829003601f168201915b50505050509050919050565b6001600160a01b039182165f90815260056020908152604080832093909416825291909152205460ff1690565b6107066108bb565b6001600160a01b03811661072f57604051631e4fbdf760e01b81525f6004820152602401610405565b610738816108e8565b50565b5f6001600160e01b031982166380ac58cd60e01b148061076b57506001600160e01b03198216635b5e139f60e01b145b8061031557506301ffc9a760e01b6001600160e01b0319831614610315565b5f818152600260205260408120546001600160a01b03168061031557604051637e27328960e01b815260048101849052602401610405565b6105108383836001610b28565b5f806107dc858585610c2c565b90506001600160a01b0381166108385761083384600880545f838152600960205260408120829055600182018355919091527ff3f7a9fe364faab93b216da50a3214154f22a0a2b415b23a84c8169e8b636ee30155565b61085b565b846001600160a01b0316816001600160a01b03161461085b5761085b8185610d1e565b6001600160a01b0385166108775761087284610d9b565b61089a565b846001600160a01b0316816001600160a01b03161461089a5761089a8585610e42565b949350505050565b6103dc828260405180602001604052805f815250610e90565b600a546001600160a01b031633146105fe5760405163118cdaa760e01b8152336004820152602401610405565b600a80546001600160a01b038381166001600160a01b0319831681179093556040519116919082907f8be0079c531659141344cd1fd0a4f28419497f9722a3daafe3b4186f6b6457e0905f90a35050565b6001600160a01b0383166109625760405163a9fbf51f60e01b81525f6004820152602401610405565b6001600160a01b03821661099457604051630b61174360e31b81526001600160a01b0383166004820152602401610405565b6001600160a01b038381165f81815260056020908152604080832094871680845294825291829020805460ff191686151590811790915591519182527f17307eab39ab6107e8899845ad3d59bd9653f200f220920489ca2b5937696c31910160405180910390a3505050565b6001600160a01b0383163b15610b2157604051630a85bd0160e11b81526001600160a01b0384169063150b7a0290610a4290889088908790879060040161142a565b6020604051808303815f875af1925050508015610a7c575060408051601f3d908101601f19168201909252610a7991810190611466565b60015b610ae3573d808015610aa9576040519150601f19603f3d011682016040523d82523d5f602084013e610aae565b606091505b5080515f03610adb57604051633250574960e11b81526001600160a01b0385166004820152602401610405565b805160208201fd5b6001600160e01b03198116630a85bd0160e11b14610b1f57604051633250574960e11b81526001600160a01b0385166004820152602401610405565b505b5050505050565b8080610b3c57506001600160a01b03821615155b15610bfd575f610b4b8461078a565b90506001600160a01b03831615801590610b775750826001600160a01b0316816001600160a01b031614155b8015610b8a5750610b8881846106d1565b155b15610bb35760405163a9fbf51f60e01b81526001600160a01b0384166004820152602401610405565b8115610bfb5783856001600160a01b0316826001600160a01b03167f8c5be1e5ebec7d5bd14f71427d1e84f3dd0314c0f7b2291e5b200ac8c7c3b92560405160405180910390a45b505b50505f90815260046020526040902080546001600160a01b0319166001600160a01b0392909216919091179055565b5f828152600260205260408120546001600160a01b0390811690831615610c5857610c58818486610ea7565b6001600160a01b03811615610c9257610c735f855f80610b28565b6001600160a01b0381165f90815260036020526040902080545f190190555b6001600160a01b03851615610cc0576001600160a01b0385165f908152600360205260409020805460010190555b5f8481526002602052604080822080546001600160a01b0319166001600160a01b0389811691821790925591518793918516917fddf252ad1be2c89b69c2b068fc378daa952ba7f163c4a11628f55a4df523b3ef91a4949350505050565b5f610d28836105a8565b5f838152600760209081526040808320546001600160a01b0388168452600690925290912091925090818314610d7d575f83815260208281526040808320548584528184208190558352600790915290208290555b5f938452600760209081526040808620869055938552525081205550565b6008545f90610dac90600190611481565b5f8381526009602052604081205460088054939450909284908110610dd357610dd3611316565b905f5260205f20015490508060088381548110610df257610df2611316565b5f918252602080832090910192909255828152600990915260408082208490558582528120556008805480610e2957610e29611494565b600190038181905f5260205f20015f9055905550505050565b5f6001610e4e846105a8565b610e589190611481565b6001600160a01b039093165f908152600660209081526040808320868452825280832085905593825260079052919091209190915550565b610e9a8383610f0b565b610510335f858585610a00565b610eb2838383610f6c565b610510576001600160a01b038316610ee057604051637e27328960e01b815260048101829052602401610405565b60405163177e802f60e01b81526001600160a01b038316600482015260248101829052604401610405565b6001600160a01b038216610f3457604051633250574960e11b81525f6004820152602401610405565b5f610f4083835f6107cf565b90506001600160a01b03811615610510576040516339e3563760e11b81525f6004820152602401610405565b5f6001600160a01b0383161580159061089a5750826001600160a01b0316846001600160a01b03161480610fa55750610fa584846106d1565b8061089a5750505f908152600460205260409020546001600160a01b03908116911614919050565b6001600160e01b031981168114610738575f80fd5b5f60208284031215610ff2575f80fd5b8135610ffd81610fcd565b9392505050565b5f81518084525f5b818110156110285760208185018101518683018201520161100c565b505f602082860101526020601f19601f83011685010191505092915050565b602081525f610ffd6020830184611004565b5f60208284031215611069575f80fd5b5035919050565b80356001600160a01b0381168114611086575f80fd5b919050565b5f806040838503121561109c575f80fd5b6110a583611070565b946020939093013593505050565b5f805f606084860312156110c5575f80fd5b6110ce84611070565b92506110dc60208501611070565b9150604084013590509250925092565b5f602082840312156110fc575f80fd5b610ffd82611070565b634e487b7160e01b5f52604160045260245ffd5b5f67ffffffffffffffff8084111561113357611133611105565b604051601f8501601f19908116603f0116810190828211818310171561115b5761115b611105565b81604052809350858152868686011115611173575f80fd5b858560208301375f602087830101525050509392505050565b5f6020828403121561119c575f80fd5b813567ffffffffffffffff8111156111b2575f80fd5b8201601f810184136111c2575f80fd5b61089a84823560208401611119565b5f80604083850312156111e2575f80fd5b6111eb83611070565b9150602083013580151581146111ff575f80fd5b809150509250929050565b5f805f806080858703121561121d575f80fd5b61122685611070565b935061123460208601611070565b925060408501359150606085013567ffffffffffffffff811115611256575f80fd5b8501601f81018713611266575f80fd5b61127587823560208401611119565b91505092959194509250565b5f8060408385031215611292575f80fd5b61129b83611070565b91506112a960208401611070565b90509250929050565b600181811c908216806112c657607f821691505b6020821081036112e457634e487b7160e01b5f52602260045260245ffd5b50919050565b634e487b7160e01b5f52601160045260245ffd5b5f6001820161130f5761130f6112ea565b5060010190565b634e487b7160e01b5f52603260045260245ffd5b601f82111561051057805f5260205f20601f840160051c8101602085101561134f5750805b601f840160051c820191505b81811015610b21575f815560010161135b565b815167ffffffffffffffff81111561138857611388611105565b61139c8161139684546112b2565b8461132a565b602080601f8311600181146113cf575f84156113b85750858301515b5f19600386901b1c1916600185901b178555610b1f565b5f85815260208120601f198616915b828110156113fd578886015182559484019460019091019084016113de565b508582101561141a57878501515f19600388901b60f8161c191681555b5050505050600190811b01905550565b6001600160a01b03858116825284166020820152604081018390526080606082018190525f9061145c90830184611004565b9695505050505050565b5f60208284031215611476575f80fd5b8151610ffd81610fcd565b81810381811115610315576103156112ea565b634e487b7160e01b5f52603160045260245ffdfea264697066735822122045419460cb96fc4b7a467b87f016d1910e125b3daca170cfa7c3fad0d4aee66e64736f6c63430008180033",
  "linkReferences": {},
  "deployedLinkReferences": {}
}